:020000040800F2
:10000000D80B0020C5000008D52200088D1E00086E
:1000100000000000000000000000000000000000E0
:100020000000000000000000000000005325000850
:1000300000000000000000005125000855250008C0
:10004000D700000800000000D7000008D700000813
:10005000D7000008D7000008D7000008D700000824
:1000600000000000D700000855040008D700000871
:1000700009020008D7000008D700000800000000AF
:10008000212600080000000000000000D700000842
:1000900000000000D7000008D7000008D7000008C3
:1000A00000000000D700000800000000FD2A000842
:1000B0000348854600F06AF8004800473D2D0008D7
:1000C000D80B00200448804704480047FEE7FEE7BD
:1000D000FEE7FEE7FEE7FEE7C5250008B1000008E1
:1000E00030B50B46014600202022012409E00D46D0
:1000F000D5409D4205D31D469540491B2546954058
:1001000040191546521E002DF1DC30BD70B500249B
:100110002546002801DA01244042002901DA0125A0
:100120004942FFF7DDFFAC4200D04042002C00D036
:10013000494270BD03460B439B0703D009E008C941
:10014000121F08C0042AFAD203E00B780370401C87
:10015000491C521EF9D27047D2B201E00270401C15
:10016000491EFBD270470022F6E710B513460A4637
:1001700004461946FFF7F0FF204610BD421C0178E7
:10018000401C0029FBD1801A70470000064C012555
:10019000064E05E0E36807CC2B430C3C984710342F
:1001A000B442F7D3FFF788FF80370008A037000874
:1001B00070B58C180578401C6B075B0F01D1037874
:1001C000401C2A1106D10278401C03E006780E700C
:1001D000401C491C5B1EF9D12B0705D40023521E7D
:1001E0000DD40B70491CFAE70378401CCB1A921C03
:1001F00003E01D780D70491C5B1C521EF9D5A1420D
:10020000D8D3002070BD000010B5024800F0FAF904
:1002100010BD000044030020F8B504460020009003
:10022000206881688907890F012905D10168C907FC
:100230002CD1C168090429D48168154A10261140BF
:100240000125002915D1816829438160124811498F
:100250000068FFF745FF00E0401E00900028FBD13A
:1002600000F00EFD07460CE000F00AFDC01B02285E
:1002700007D9606C30436064A06C2843A0640120FF
:10028000F8BD20680068C043C007EDD10020F8BD6C
:100290001700008040420F003003002010B50278A4
:1002A000FF2A09D101794079090208187D214843C4
:1002B0006421FFF715FF81B2084610BD70B50A4CE6
:1002C0000A4D207801280DD1E01DFF302179064626
:1002D000FFF7E4FF2880A1883046FFF744FF0020A5
:1002E0002070A080288870BD1C0400201C03002002
:1002F00030B585B001210925002400910291ED0659
:1003000001946946284600F00BFC04E0641CE4B24A
:10031000012002F0FFFC0121284600F0A5FC002886
:1003200002D0642CF2D310E0642C0ED2002404E03E
:10033000641CE4B2012002F0EDFC0121284600F02B
:1003400093FC002804D0642C05D3012005B030BDF7
:10035000642CEDD3F9E70020F8E770B500240925F7
:10036000ED0604E0641CE4B2012002F0D3FC01219C
:10037000284600F079FC002801D0642CF2D3002438
:1003800004E0641CE4B2012002F0C4FC0121284610
:1003900000F06AFC002801D1642CF2D3282002F07E
:1003A000B9FC0121284600F05FFC002800D00120A4
:1003B00070BD70B5002004464006050EFFF7CDFF66
:1003C000641C2843E4B2082CF6D370BDFEB50D467C
:1003D000064600F01FF8FFF78BFF002801D0012030
:1003E000FEBD00246F46FFF7E4FF3855641CE4B2FD
:1003F000052CF8D36A46117850780B189078D2788B
:1004000082189B186A461279934201D12970307084
:100410000020FEBD10B586B00120009001900320A1
:100420000924E40603906946204600F079FB002287
:100430000121204600F01DFC122000F062FB012289
:100440001146204600F015FC1E2002F063FC06B0A9
:1004500010BD000010B5024800F0A4FA10BD000065
:100460009407002010B5044600680549401814217F
:10047000FFF736FE800020640248E06310BD0000F4
:10048000F8FFFDBF0000024030B5056C0124AC4010
:10049000C56B6C60046863604368102B036803D00D
:1004A00099600068C26030BD9A600068C16030BD6C
:1004B00010B507480268136810210B4313600068E9
:1004C00001620A010349024801F06CFC10BD000002
:1004D000240700202204002070470000F8B5002502
:1004E0000446403400952278012A39D00122227036
:1004F00003689E68760767D4384F4E68BE424DD079
:100500009E6A0F78BA4016439E620123826B1B07D6
:100510009A421FD0012A1DD0022A1BD0032A19D0CB
:10052000042A17D0052A15D0062A13D0072A11D07D
:1005300002688B6856697607760FB3420AD0536912
:10054000DB08DB005361006842690B7A5B075B0FD5
:100550001A4342610A68102A04D0112A02D038E0F6
:100560000220F8BD1E488368102A07D00122920598
:10057000134383600868102803D02AE00122D205C3
:10058000F6E7194817490068FFF7AAFD0A21484312
:1005900000E0401E00900028FBD11AE0986A0E7817
:1005A000B240904398620968102901D0112910D1F6
:1005B0000B488268102904D0012189058A43826092
:1005C00007E00121C905F9E7416C2022114341648C
:1005D0000125002020702846F8BD00000110000011
:1005E0000027014040420F003003002010B500F00A
:1005F00006F80149088010BD2803002070470068F4
:10060000006C704770B5044600680168490702D560
:100610004168490705D40168090730D541680907D1
:100620002DD5616CC90604D4616C012252021143BC
:100630006164C1680C250905890F00291AD1216A56
:10064000002917D10168090714D581684A070121DB
:10065000002A08DB4268AA434260606C0A029043A9
:100660000843606406E0606C202210436064A06C64
:100670000843A0642046FFF7B9FF206805602068A2
:10068000016809060DD5406800060AD5606C012195
:10069000090408436064204600F0D6F821688020F1
:1006A000086020680168C90613D54168C90610D5DD
:1006B000616B1025012902D0C168C90707D0A16C60
:1006C00002221143A16405602046FFF797FF2068CE
:1006D000056070BDF8B500250446002803D0606CA5
:1006E000002802D008E00120F8BD0020A0644021CD
:1006F0000855204600F0AAF8606C1022C0060028B9
:1007000070DB2068816849076CD4616C13019943E0
:1007100002231943616481688907890F012905D182
:100720000168C9070FD1C16809040CD4C168182336
:100730009943A3681943C16020680169636889000F
:100740008908194301612068C1683D4B1940C160A7
:10075000A069E1698003C9030843216A4B03184378
:10076000636B012B02D001231B0300E0002318431D
:10077000E36818432369022B09D000231843236B35
:10078000666A5B0018430123012E02D00AE00423AD
:10079000F4E7002927D0616C202631436164A16C05
:1007A0001943A164A16A0E46FF3EC23E02D0E66A2A
:1007B000314308432168CE680643CE600126A16B11
:1007C0003607B14213D0012911D002290FD00329D5
:1007D0000DD004290BD0052909D0062907D00729F7
:1007E00005D010E028E0012109040843DAE7216878
:1007F0004E69F608F6004E6121684E69278F7F0723
:100800007F0F3E434E612168C9680E4E31408142E0
:1008100007D10020A064606C80088000401C6064E8
:1008200008E0606C0221884310436064A06C1843A8
:10083000A06401252846F8BD606C10436064F8E7A9
:100840001902FEFFE7FF3F837047000010B586B036
:10085000044614216846FFF786FC14492068884244
:1008600021D11348826941150A43826182690A4095
:100870000592426909020A434261406908400590B5
:10088000202000900320019000200290092069465A
:10089000C00600F045F9002211460C2000F0BEFB16
:1008A0000C2000F0B1FB06B010BD00000024014098
:1008B0000010024070B5044621680020896849078D
:1008C00032D425464035297801292DD001212970BF
:1008D000E169012904D02046FFF79EFC002818D1C9
:1008E000616C124A1140FF22013211436164002100
:1008F000A164297022681C21116063690422082BFD
:1009000008D023685D680D435D6021688B681343E0
:100910008B6070BD21684B6893434B6021684B68C6
:1009200018252B434B60F0E7022070BDFEF1FFFF5E
:1009300001680A680E239A430A6001680A6852082F
:1009400052000A600121036C0A469A40C36B5A6048
:1009500020304170002101700846704770B50024B6
:10096000014620314A78022A03D004218163012400
:1009700016E0026813680E25AB4313600268136823
:100980005B085B0013600122056C1346AB40C56B2E
:100990006B604A7000220A70416B002900D08847C2
:1009A000204670BDF0B4C16B0D6801680C6804226C
:1009B000066C1346B3402B420DD063070BD50B6872
:1009C0009B0602D40B6893430B60016C8A40C16B99
:1009D0004A60C16A19E00227B74002462F4001234E
:1009E0002032002F15D0A70713D50C68A40604D415
:1009F0000C680A25AC430C605370036C02219940CB
:100A0000C36B596000211170816A002916D0F0BCB7
:100A100008470827B7402F4210D024070ED50C688E
:100A20000E25AC430C60046C1946A140C46B616098
:100A30008363537000211170016BE6E7F0BC7047CF
:100A400070B5040024D00220214620310D464870A4
:100A5000226811680F48A36801406068266918433E
:100A6000E3683343184363691843A3691843E36990
:100A70001843084310602046FFF7F4FC0020A062F2
:100A8000E06220636063A06301216970287070BD1B
:100A9000012070BD0FC0FFFFF8B504468C46203022
:100AA00001780025012909D0012606704178002728
:100AB000012905D0077002252846F8BD0220F8BD9F
:100AC00002214170A763206801684908490001605C
:100AD00061462046FFF7D8FCE06A002820680168DC
:100AE00002D00E22114306E00A2211430160206861
:100AF000016804229143016020680168314301606C
:100B0000DAE731B500F0BCF8009C0546601C00D067
:100B1000641C00F0B5F8401BA042FAD338BD0000B9
:100B2000F8B500238DE001249C40A44622407DD0EE
:100B30004C68022C01D0122C0CD1DC08A400271820
:100B40003C6A5D07ED0E0F26AE40B4430E69AE4021
:100B500026433E6205685E000324B4400F79A54336
:100B6000BF07BF0FB7402F4307604D68012D05D069
:100B7000022D03D0112D01D0122D0ED18568CF6822
:100B8000A543B7402F43876047686546AF430D795B
:100B9000ED06ED0F9D403D434560C568A5438C685B
:100BA000B4402C43C4604C68E40049D5284CA56986
:100BB00001263543A561A4699D0834400094254C65
:100BC000AD002F19BC689D072E0F0F25B540AC4313
:100BD0000925ED06A84201D100250FE01E4DA842CF
:100BE00001D101250AE01D4DA84201D1022505E0F1
:100BF0001B4DA84201D1032500E00525B540254342
:100C0000BD60184C25684E689543F60300D5154322
:100C1000256065684E689543B60300D51543656049
:100C2000A5684E689543F60202D500E008E015433A
:100C3000A560E5684E689543B60200D51543E560AA
:100C40005B1C0A681446DC4000D06CE7F8BD00006D
:100C50000010024000000140000400480008004865
:100C6000000C0048000401400069084000D0012049
:100C70007047002A01D0816170478162704700008F
:100C800001480068704700002C03002070B5024640
:100C900040325378202B1CD11378012B19D001231B
:100CA000137024245470046825689D4325600468EB
:100CB00025681E03B5432560046825680D4325603B
:100CC00000680168194301602020507000201070F6
:100CD00070BD022070BD70B5024640325378202BA3
:100CE0001BD11378012B18D00124147024235370C6
:100CF00003681D68A5431D6005682B680F26360232
:100D0000B343090219432960006801682143016067
:100D1000202050700020107070BD022070BD0000B7
:100D200070B5040006D025464035687800260028B6
:100D300002D005E0012070BD2E70204600F0F4F8CE
:100D400024206870206801684908490001600F216B
:100D50006068090688432168086121688A68012063
:100D6000C00382438A60E1680129A16808D021227A
:100D70009202114322689160E168022902D005E0E5
:100D80000143F7E701212268C902516021684A68DE
:100D90000F4B1A434A602168CA688243CA6061697E
:100DA00020690843A169090208432168C860216AD3
:100DB000E069084321680860206801680122114346
:100DC00001606664202068702663AE70002070BDEC
:100DD00000800002FFB5054604464035687883B0C0
:100DE000202876D10C98002874D00D98002871D056
:100DF000287801286DD001202870FFF741FF0746B1
:100E0000012200901923D103204601F0D3F80028D5
:100E100053D1212068704020A870002666640C9889
:100E200060620D98608566630E980090019704A932
:100E30000EC9204601F076F8002804D0606C2E70B0
:100E400004286AD039E0608DFF2805D9FF22228569
:100E500001231B06009606E0608D20850096208DFC
:100E60000123C2B25B062046049901F091F83A468C
:100E700020460E9901F0E9F8002803D0606C0428A0
:100E80004BD01AE0606A411C616221680078886278
:100E9000608D401E6085208D401E0004000C208562
:100EA00024D1608D002821D0009700228021204687
:100EB0000E9B01F07FF8002802D0032007B0F0BDA0
:100EC000608DFF2807D9FF22228501231B0600968B
:100ED00008E024E021E0608D20850096208D01232C
:100EE000C2B25B062046049901F052F8608D0028DA
:100EF000BDD13A4620460E9901F080F80028BDD1B8
:100F000020682021C16120684268064B1A40426077
:100F10006970AE702E700020D0E70120CEE702206D
:100F2000CCE7000000E800FE10B586B004461421AE
:100F30006846FFF718F913492068884220D1124CFF
:100F4000616901204004014361616169014003203E
:100F50000591400200901220019001200290032090
:100F600003900420049009206946C006FFF7D8FDCD
:100F7000E169012040050143E161E169014005911A
:100F800006B010BD00540040001002400248016845
:100F9000491C0160704700002C03002010B5064872
:100FA0000168102211430160002000F007F800F0F2
:100FB00017F8002010BD00000020024010B50446C4
:100FC00000F03AF97D21C900FFF78AF800F030FB04
:100FD00000222146501E00F021F8002010BD000024
:100FE00008B5084881690122114381618169114076
:100FF0000091C26901040A43C261C06908400090BF
:1010000008BD000000100240C106C90E0120884042
:10101000014908607047000000E100E010B501F0F0
:101020005BF910BDF8B505460068354CC00352D5D4
:10103000E0690026C00007D4E16920040143E161B2
:10104000E1690140012600912E480168C90510D4CC
:101050000168821511430160FFF712FE074604E0A4
:10106000FFF70EFEC01B642824D826480068C00580
:10107000F6D5206A03273F02384020D069683940FE
:1010800081421CD0206A226AB843012109040A4324
:101090002262226A8A4322622062C0070FD0FFF7D1
:1010A000EFFD009008E0FFF7EBFD0099411A1648AC
:1010B000814201D90320F8BD206A8007F3D5206A58
:1010C0006968B84308432062002E04D0E16901201A
:1010D00000078143E1612878C00705D0206BA9682B
:1010E00080088000084320632878800605D5206B9F
:1010F00010218843E968084320630020F8BD000000
:10110000001002400070004088130000F8B505464A
:1011100044480E460068C007C00FB0420AD241489A
:10112000016849084900314301600068C007C00FE9
:10113000B0425CD128783C4C800705D56068F0212E
:101140008843A968084360602878C0073FD0686872
:10115000012813D02168022813D08907002946DA14
:1011600061688908890001436160FFF789FD69684A
:10117000074601290DD0022917D024E021688903F0
:10118000ECE78901EAE7FFF77BFDC11B27488142B5
:1011900017D860680007800F0128F4D117E0FFF727
:1011A0006FFDC11B214881420BD860680007800F8A
:1011B0000228F4D10BE0FFF763FDC11B1B488142FD
:1011C00001D90320F8BD60680007800FF3D11548EE
:1011D0000168C907C90FB1420BD901684908490024
:1011E000314301600068C007C00FB04201D0012048
:1011F000F8BD2878400706D56068072109028843B2
:10120000E9680843606000F02DF86168084A090643
:10121000090F515CC840074908600020FFF7CEFE67
:101220000020F8BD0020024000100240881300009A
:10123000683700083003002001480068704700004C
:10124000300300200448054900684968044A4905FC
:10125000490F515CC8407047300300200010024025
:101260007837000810B512A30FCB88B06C460FC4B6
:1012700013A30FCB0FC416494A680C201346034032
:101280001448042B0FD0082B0DD193021B0F6C4672
:10129000E45CC96A04AB0907090F595CD20304D5A1
:1012A000FEF71EFF604308B010BD0B486043FAE72D
:1012B00002030405060708090A0B0C0D0E0F101097
:1012C0000102030405060708090A0B0C0D0E0F1096
:1012D0000010024000127A0000093D00FEB50446ED
:1012E0000078D04DC00747D068680007800F0128FC
:1012F00007D068680007800F022809D16868C0031A
:1013000006D52868800337D5606800287ED033E092
:10131000012062680004012A11D08100002A01D056
:10132000052A10D02A6882432A60286888432860EA
:101330006068002814D0FFF7A3FC06460CE029687B
:1013400001432960F4E72A680A432A60F7E7FFF7B8
:1013500097FC801B64286FD828688003F7D50BE0C2
:10136000FFF78EFC064604E0FFF78AFC801B64282A
:10137000F1D828688003F7D4207801268007002858
:101380003BDA68680007800F07D068680007800FA5
:10139000022809D16868C00306D42868800715D5DB
:1013A000E068012832D111E0E0680028286815D0F3
:1013B00030432860FFF764FC074604E0FFF760FC59
:1013C000C01B0228C7D828688007F7D52868F821ED
:1013D00088432169C900084328600EE040084000A6
:1013E0002860FFF74DFC074604E0FFF749FCC01BEF
:1013F0000228B0D828688007F7D42078000724D5C1
:10140000E0690028686A10D0304300E008E16862B3
:10141000FFF736FC074604E0FFF732FCC01B02284A
:1014200099D8686A8007F7D50FE0400840006862E5
:10143000FFF726FC074605E09DE0FFF721FCC01BF7
:10144000022888D8686A8007F7D4207804274007E4
:10145000002860DA00200190E869C00008D4E9693A
:10146000B8060143E961E96901400120009101905A
:101470006D480168C90511D40168821511430160E6
:10148000FFF7FEFB009005E0FFF7FAFB0099401A1A
:10149000642870D864480068C005F5D5A0680128A4
:1014A0000AD0002801D0052810D0286A4008400042
:1014B0002862286AB84301E0286A30432862A0689D
:1014C000002812D0FFF7DCFB00900AE0286A3843BE
:1014D0002862F1E7FFF7D4FB0099411A5348814293
:1014E00049D8286A8007F5D50DE0FFF7C9FB0090C1
:1014F00006E0FFF7C5FB0099411A4C4881423AD8F3
:10150000286A8007F5D40198002804D0E9690120F1
:1015100000078143E9612078C00635D5606901285C
:101520000CD0401D686B23D038436863686B40085B
:1015300040006863FFF7A4FB064622E0686B38436F
:101540006863686B30436863FFF79AFB064604E004
:10155000FFF796FB801B02285BD8686B8007F7D5E6
:10156000686BF8218843A169C900084368630BE0F0
:10157000B8436863F4E74CE0FFF782FB801B022866
:1015800047D8686B8007F7D4206A002846D069687E
:101590000907890F022943D0012636060228286848
:1015A00005D0B0432860FFF76BFB044633E0B0433F
:1015B0002860FFF765FB074604E0FFF761FBC01BEF
:1015C000022826D828688001F7D4E86AE16A000971
:1015D00000010843E862616AA06A084369683D2225
:1015E0001204914308436860286830432860FFF77D
:1015F00047FB044604E0FFF743FB001B022808D822
:1016000028688001F7D509E0FFF73AFB001B0228A4
:1016100001D90320FEBD28688001F5D40020FEBD5D
:101620000120FEBD00100240007000408813000041
:10163000094910B5401E884201D9012010BD074C50
:1016400060610321081F00F047FE0020A061072011
:101650002061002010BD0000FFFFFF0000E000E05F
:101660007047704770B502462032137F012B1BD0A4
:101670000123137702245477046865687026B54304
:101680006560046865680E68354365600468A56830
:101690008026B543A5600068846849680C4384606F
:1016A00053770020107770BD022070BD70B50068C0
:1016B0001349884212D1134C134D207801280ED0C3
:1016C00002280BD10021114800F00AFA68600021BD
:1016D0000E4800F023F92078401C207070BD0021D6
:1016E0000A4800F0FDF92860084801680A6A084BBA
:1016F0001A400A620068016A022211430162EAE7A5
:10170000000400402003002038030020DC030020F8
:10171000F5FF0000F8B5064604462036307F0D463A
:1017200001283DD00120307702207077002A39D07F
:10173000042A46D0082A57D02B68297B20689E4669
:101740008C466B68016A0122120391430162C169F0
:10175000026A03273F02B9431B020B430F2109030F
:101760008B4361460907090C194305235B039A4320
:1017700073460A273B401B031343C1610362206881
:10178000C169032292029143C1612068C169AA68BC
:1017900012021143C1610120707700203077F8BD3B
:1017A0000220F8BDEB6806CD083D206800F088FFF8
:1017B000206882690C218A43826120688169AA6855
:1017C0000FE0EB6806CD083D206800F09BFF206825
:1017D0008269032189028A43826120688169AA683B
:1017E000120211438161D6E788CD287921688446A9
:1017F000086AFF22013290430862C8690A6A8008B9
:1018000080003843F027B84367463F073F0E074341
:101810000520400282430A20034018021043CF6192
:1018200008622068C1690C229143C1612068C169C6
:101830002A68AEE770B5040005D025462035687FDC
:10184000002802D006E0012070BD00202877204645
:1018500000F00AF802206877211D206800F0E8FEF9
:1018600001206877002070BD10B586B004461421B1
:101870006846FEF778FC15492068884223D1144851
:10188000C26902210A43C261C2690A4005924369E2
:101890000A041343436140690191104005904020C0
:1018A00000900020039001200490029109206946D5
:1018B000C006FFF735F9002211461020FFF7AEFBF6
:1018C0001020FFF7A1FB06B010BD0000000400408F
:1018D0000010024010B502680446002906D0042911
:1018E00007D0082914D00C2907D114E0D0680223AE
:1018F00001E0D06804231843D0600122206800F082
:10190000D3FE20680168012211430160002010BD50
:10191000D0680823EFE7D0681023ECE710B5026821
:101920000446002906D0042907D008291CD00C2918
:1019300007D11CE0D068022301E0D068042398435B
:10194000D0600022206800F0AFFE2068016A094ADA
:10195000114207D1016A9210114203D1016849086E
:1019600049000160002010BDD0680823E7E7D06877
:101970001023E4E71111000070B504460068016906
:101980000025C9438907002915DBC168C9438907B8
:1019900011D4E91E01610120207720688069800749
:1019A000204602D0FFF782FE04E000F096F82046C1
:1019B00000F094F8257720680169C943490717D4D6
:1019C000C168C943490713D40421C94301610220F6
:1019D0002077206880698005800F204602D0FFF7BD
:1019E00065FE04E000F079F8204600F077F82577EE
:1019F00020680169C943090716D4C168C9430907AA
:101A000012D40821C9430161042020772068C069ED
:101A10008007204602D0FFF749FE04E000F05DF8A1
:101A2000204600F05BF8257720680169C943C906A4
:101A300017D4C168C943C90613D41021C943016131
:101A4000082020772068C0698005800F204602D0DA
:101A5000FFF72CFE04E000F040F8204600F03EF8CE
:101A6000257720680169C943C90708D1C168C943FE
:101A7000C90704D1891E0161204600F030F82068B2
:101A80000169C943090609D4C168C943090605D4D7
:101A90008021C94301612046FFF7E2FD206801690A
:101AA000C943490609D4C168C943490605D4402140
:101AB000C9430161204600F036F820680169C94336
:101AC000890609D4C168C943890605D42021C943C0
:101AD00001612046FFF7C5FD70BD70477047704734
:101AE00010B5034620331C7F0022012C0AD00124AC
:101AF0001C77002908D0042909D008290AD00C290C
:101B00000DD10AE0022010BD0068426B07E00068BA
:101B1000826B04E00068C26B01E00068026C002088
:101B20001877104610BD704770B504466030054602
:101B3000407A21280FD12068816809060BD5816879
:101B4000802291438160206E002801D0FEF7F0FED4
:101B5000204600F0CFFEA87A22280FD120688168A5
:101B600049060BD58168402291438160606E002850
:101B700001D0FEF7DDFE204600F0A0FE002070BD83
:101B800070470000F8B503680446D96918680D0766
:101B90002D0F07D18A0605D5820603D5204600F011
:101BA000B2FEF8BD9A68002D64D0D507ED0FFF2670
:101BB000213606402E435DD0CE0706D0C60504D59B
:101BC00001261E62E36E3343E3668F070223042679
:101BD000002F06DAD70704D027683B62E76E374349
:101BE000E7664F0706D5D20704D022681662E26E78
:101BF0001A43E2660A0709D5202202402A4305D08B
:101C0000236808221A62E36E1343E366E26E002A39
:101C1000C7D0890604D5800602D5204600F073FEA1
:101C2000E06E000703D42068806840061CD520467B
:101C300000F044FE20688168490611D58168402281
:101C400091438160606E00280AD012494163606E42
:101C5000FEF784FE0028A4D0606E416B8847F8BD73
:101C60002046FFF78DFFF8BD2046FFF789FF0020D3
:101C7000E066F8BD0A0605D5020603D5204600F049
:101C800009FFF8BD4906FCD54006FAD5204600F00C
:101C900024FEF8BD1528000870B5040005D02546BF
:101CA0006035687A002802D006E0012070BD00206F
:101CB0002872204600F026F8242068722068016807
:101CC000490849000160204600F05AFE0128EDD085
:101CD000606A002802D0204600F02EFD206841688E
:101CE0000122D20291434160206881680822914319
:101CF000816020680168012211430160204600F0E4
:101D000080FD70BD70B586B0064614216846FEF7AA
:101D10002AFA2049306888423AD11F498A6901204D
:101D2000800302438A618A69024005924A69C000C1
:101D300002434A6149690025014005910C20009049
:101D400002200190032003900120049009200295B5
:101D50006946C006FEF7E4FE1048114C21C4256018
:101D6000A560E56025618020656160600C48083CE5
:101D7000FEF766FE002801D0FEF7AEFB7466002277
:101D800011461B206662FFF749F91B20FFF73CF95B
:101D900006B070BD00380140001002403000024023
:101DA00094070020F8B5054604466035A87A202837
:101DB00041D100290BD0002A09D00123A0681B03C0
:101DC000984206D12069002803D1C80701D001201C
:101DD000F8BD287A01282ED001202872582061658C
:101DE00002530026E6662220A872616E13488862BC
:101DF000616E1348C862616E12480863606E1346D4
:101E00004663676D21683A462431606EFEF744FEF2
:101E10002E7220680168FF220132114301602068A0
:101E2000816801221143816020688168402211434A
:101E300081600020F8BD0220F8BD00007328000872
:101E4000B32800082928000810B500680C4988420A
:101E500014D10C4C2146A388C81DFF304A88002BA2
:101E600000D01818A11DFEF765F9A08861884018F8
:101E7000A080A01DFEF777F90120207010BD0000A2
:101E8000003801401C04002070477047FEE70168DD
:101E90008A69D243920701D400228A62006881696C
:101EA000C943C90703D08169012211438161704789
:101EB000F7B5044600680E468069C043C0062CD4BE
:101EC00020272546403520688069C04380060FD50D
:101ED000701CF8D0002E05D0FEF7D2FE0299401AF1
:101EE000B042F0D96F700020A87028700320FEBDAA
:101EF00021681020C8612068C7612046FFF7C7FF2E
:101F000020684168064A11404160042060646F7097
:101F10000020A87028700120FEBD0020FEBD00003A
:101F200000E800FEF8B504460120164640031D46B1
:101F3000DAB2C3020090079F204600F029F83A4623
:101F40002046069900F081F8002803D0606C042830
:101F50001BD018E02846F5B2012809D02168300AC4
:101F600088623A462046069900F06FF80028EDD1C5
:101F7000206885620097002280212046069B00F0A1
:101F800019F8002800D00320F8BD0120F8BD00009A
:101F900070B50568049C68688905890D1204044EB3
:101FA00011431943304021430143696070BD000073
:101FB000009800FCF8B51C4617460E46054611E091
:101FC000601C0FD0002C05D0FEF75AFE0699401A6F
:101FD000A04207D92020403568700020A8702870E2
:101FE0000320F8BD286881693046884304D000206A
:101FF000B842E5D00020F8BD0120F9E770B51646DB
:102000000D4604461AE0324629462046FFF750FFA7
:10201000002801D0012070BD002D04D0FEF730FE55
:10202000801BA8420AD9616C2020014361644034BE
:1020300060700020A0702070032070BD206880694F
:10204000C0438006DFD4002070BD70B516460D4633
:1020500004461CE0324629462046FFF729FF0028A7
:1020600001D0012070BD681C11D0002D04D0FEF7F6
:1020700007FE801BA8420AD9616C202001436164DD
:10208000403460700020A0702070032070BD206874
:102090008069C0438007DDD4002070BD7CB5002579
:1020A0000C466E460A280BDA302121703030607001
:1020B000A41C0DE00A21FEF729F8303171556D1C82
:1020C0000028F7DC6D1E03D4705D2070641CF9E7F6
:1020D000002020707CBD00000EB500211748009143
:1020E00001910291144A416002608160012204233F
:1020F0000C300EC0016041608160FF23C160C233BB
:1021000041610361C26181611838FEF7E3FA00287A
:1021100001D0FEF7E1F905200090012000030190B5
:102120000720029069460548FEF7D8F9002801D03B
:10213000FEF7D2F90EBD0000002401404403002048
:1021400008B50848416901221143416140691040C6
:102150000022009011460A20FEF760FF0A20FEF7D9
:1021600053FF08BD0010024010B586B01421684628
:10217000FDF7F9FF11484269012189050A434261CF
:1021800042690A400592426949110A434261406925
:1021900009240840E4060590002201212046FEF7AC
:1021A00068FD01210091019100210291039169468E
:1021B0002046FEF7B5FC06B010BD0000001002403E
:1021C00010B514491448012206C000210160816045
:1021D000C16001614161426081610838FEF7A0FD84
:1021E000002801D0FEF778F900210B48FEF74EFDDC
:1021F000002801D0FEF770F900210748FEF76BFDBB
:10220000002801D0FEF768F9044801680201114373
:10221000016010BD00540040900300200000014008
:1022200010B586B0002405941948049400940194D4
:10223000029416490394016016498460416016496E
:102240000461C16080218161FFF7F4FA002801D0A8
:10225000FEF742F9049404A90D480594FFF702FA29
:10226000002801D0FEF738F90120019008200390E2
:1022700000940294002269460548FFF74BFA0028B3
:1022800001D0FEF729F906B010BD0000000400409F
:10229000DC030020BF120000FFFF000010B50C4857
:1022A0000A4901604B21C901416000218160C16080
:1022B00001618161C1610C22016242614162FFF7EB
:1022C000EBFC002801D0FEF707F910BD00380140F3
:1022D00024070020704700008307FF22DB0E9A408E
:1022E0008907090E994000280BDA0007000F08380B
:1022F000830808489B001818C36993430B43C361C4
:102300007047830804489B001B18186890430843D3
:102310001860704700ED00E000E400E070B50024B4
:102320002046B030C0B200F0A7F8002000F0A4F8BA
:10233000102000F0A1F80025002000F0B1F86D1C7D
:10234000EDB2802DF8D3641CE4B2082CE8D370BD44
:1023500010B5C820FEF7D5FB00F0FAFB10BD10B594
:102360000446B031C8B200F087F82009103000F000
:1023700083F82007000F00F07FF810BDF8B5154670
:102380000E460746FFF7EBFF0D490024A80145184C
:10239000285D00F085F8641CE4B2102CF8D3761C9C
:1023A000F1B23846FFF7DBFF00242819203000780F
:1023B00000F076F8641CE4B2102CF6D3F8BD0000EF
:1023C00000000020FFB581B0203A019800240D469E
:1023D000D6B27F2803D900208D1CEDB20190102BBE
:1023E00029460ED0FFF7BBFF062046431348351899
:1023F000285D00F055F8641CE4B2062CF8D305B053
:10240000F0BDFFF7ACFF37010D4E3819305C00F01E
:1024100047F8641CE4B2082CF7D36D1CE9B20198AC
:10242000FFF79DFF002438198019007A00F038F872
:10243000641CE4B2082CF6D3E1E70000502F00083A
:1024400078310008FFB581B017460E4604460025D6
:102450000DE031462046049BFFF7B4FF0834E4B298
:10246000782C02D90024B61CF6B26D1CEDB27A5D50
:10247000002AEED105B0F0BD01B584B0FF220121E4
:10248000013204A80B4602920191009000227821AB
:102490000248FEF79FFC05B000BD0000900300203D
:1024A00001B584B0FF220121013204A80B4602923B
:1024B00001910090402278210248FEF78BFC05B084
:1024C00000BD00009003002010B5184C20780028B3
:1024D00002D0032827D10FE00120207014480168A2
:1024E0000A6A144B1A400A620068016A01620021FC
:1024F0000F48FFF7EFF916E00F4802684168881AA5
:10250000914202D80B490A3140180A216060FDF758
:10251000E7FD0A21801E48430146606007A000F0E5
:1025200031FB00202070606810BD000020030020F7
:10253000DC030020F5FF00003803002068696768AD
:102540005F74696D65203D20256450504D0000008A
:102550007047704710B5FEF719FD10BD30B595B046
:1025600030216846FDF7FFFD00240F9413200090F2
:1025700001200D9412941094039001900590102066
:102580000E941394069004900003099000010C949B
:1025900002250A90119408950B946846FEF79EFE5A
:1025A00007200C900E9401210D950F940CA8FEF7B6
:1025B000ADFD212010901294139410A8FEF732FD67
:1025C00015B030BD13480168012211430160416814
:1025D000114A114041600168104A114001600168D0
:1025E000012292049143016041683F221204914309
:1025F0004160C16A09090901C162016BFF221432FD
:1026000091430163416B49084900416300218160A6
:1026100070470000001002400CB8FF08FFFFF6FEF4
:1026200010B50248FFF7A8F910BD0000DC03002038
:1026300070B50268174B184E984201D0B04203D1D2
:102640007024A2434C682243144C154D984208D084
:10265000B04206D0134EB04203D0A04201D0A842EF
:1026600004D103263602B243CE6832438026B243F9
:102670004E69324302608A68C2620A688262984286
:1026800003D0A04201D0A84201D109690163012110
:10269000416170BD002C0140000400400044014035
:1026A000004801400020004010B50123046A8B401F
:1026B0009C430462036A8A401343036210BD000016
:1026C00070B5046A6408640004628469056A0B4E8C
:1026D000B04202D00A4EB04202D1A408A40000E0E9
:1026E00001221443F02294431A07120E0A232243B4
:1026F0009D43194029438261016270BD002C014055
:102700000004004070B5046A1025AC43046285697A
:10271000046A03263602B54312022A430F252D030D
:102720001B071B0CAA431343A02209019443114029
:1027300021438361016270BD10B5818CC90707D048
:1027400001684A6801235B049A43836A1A434A601A
:10275000818C890707D501684A6801231B049A43C5
:10276000C36A1A434A60818C490707D501684A68E1
:1027700001239B049A43036B1A434A60818C090727
:1027800007D501684A680123DB039A43436B1A4368
:102790004A60818CC90607D50268916801231B0332
:1027A0009943836B19439160818C890607D5016831
:1027B0008A6801235B039A43C36B1A438A60818C46
:1027C000490612D503685A6801210905046C8A4339
:1027D00022435A60026C8A4207D10268516803237F
:1027E0005B059943436C19435160818C090607D5F9
:1027F00001684A680123DB04806C9A4302434A6003
:1028000010BD0021C16620226030427282720172C6
:102810000846704710B5406A0022014640314A839D
:102820004A82FFF7ADF910BD70B5446A25466035A0
:10283000687A0026212808D120688068000604D51F
:1028400052200653204600F055F8A87A222808D1D5
:1028500020688068400604D55A200653204600F0C0
:102860002DF8E06E10210843E0662046FFF788F956
:1028700070BD10B501460968406A0968890615D41B
:1028800000225A210A5201680A68FF2301339A4341
:102890000A6001688A68520852008A6001688A6882
:1028A00040239A438A6020226A210A54FFF7CCFA17
:1028B00010BD10B5406AFFF7E7FA10BD01680A685D
:1028C000FF2321339A430A6001688A685208520044
:1028D0008A60202160308172704710B501680A68F3
:1028E00040239A430A60202269210A54FFF7CDFA57
:1028F000002010BD01680A68C0239A430A602021A5
:1029000060304172704770B5024640320346603312
:10291000948B9D7A0168222D05D088690822104386
:102920008861022070BD898C012685683603B54216
:1029300002D10569002D0BD02140446D651C456511
:102940002170518B491E0904090C518307D015E0F1
:10295000456D21402980416D891C4165F1E7016881
:102960000A68FF242134A2430A6001688A68520879
:1029700052008A6020219972FFF766FA002070BD2C
:10298000F8B504462369A268E6691A436369102111
:102990003343002026681A4333680546394F3B40CD
:1029A0001343336023685A6803263603B243E6684C
:1029B00032435A60236AA26926681A43B3680B2718
:1029C0003F02BB431343B3602F4A126B9207920F2F
:1029D00006D0012A08D0022A08D0032A07D101E034
:1029E000002104E0022102E0042100E0082101228C
:1029F000E369D203934224D100290CD002290DD0DF
:102A0000042913D0082917D001250109090100075D
:102A1000400F084332E0FEF715FC09E061681B4AED
:102A200048088018FDF75CFB80B2EEE7FEF71AFC61
:102A3000616840004A08F4E761680122480812040E
:102A4000EFE7002908D0022909D004290BD0082972
:102A50000ED001252846F8BDFEF7F4FB05E06168BD
:102A60000B4A480806E0FEF7FDFB61684A0801E0F2
:102A7000616848088018FDF733FB80B22168C860A0
:102A8000E8E70000F369FFFF001002400024F400B3
:102A900000127A006921095C212901D002207047C7
:102AA00002464032518A002912D0012381681B035B
:102AB000994202D10169002915D0C16C4B1CC36435
:102AC000006809780185508A401E508200207047B6
:102AD00001680A6880239A430A60006801684022FE
:102AE00011430160F2E7C16C03680988C905C90D8B
:102AF0001985C16C891CC164E5E7000070B5104DF3
:102B00002868C1690F4EC9430F4CC9060FD4102164
:102B100001622846FFF708F82868C169008D0B4854
:102B200000684068301A60802846FFF78DF9044835
:102B3000FFF728F83246A11D0148FFF733F970BDB1
:102B400024070020000100001C040020940700203E
:102B5000FEB5FF2500240135084F012638190090E5
:102B6000012300227821019602950548FEF732F9EB
:102B7000641CE4B21B2CF1D3FEBD00000003002056
:102B8000900300200FB410B503A9044B044A029827
:102B900000F018F810BC08BC04B01847292D000834
:102BA0003403002002E008C8121F08C1002AFAD12D
:102BB00070477047002001E001C1121F002AFBD1BD
:102BC00070470000FFB58DB00446002506E02528BB
:102BD0000AD0109A0F999047641C6D1C2078002829
:102BE000F5D1284611B0F0BD00270121484A0097D1
:102BF00000E00743641C23780846203B98401042BD
:102C0000F7D120782E2817D1042007436078641C60
:102C10002A280CD10E98641C02C800910E900BE07B
:102C200000990A22514330394018641C00902078E2
:102C3000014630390929F3D920780028D1D06428F9
:102C400008D0692806D075281ED0109A0F99904791
:102C50006D1C5BE00A200E99019001C90E910028BD
:102C600002DA40422D2102E0390504D52B216A46C3
:102C70001172012103E0F90704D02021F7E70BAE20
:102C80000B910DE00021FAE70A200E99019001C98D
:102C90000E91F7E70199FDF723FA3031761E317076
:102CA0000028F7D103A8801B20300190780701D5B8
:102CB000009801E0012000900199884201DD401A4E
:102CC00000E000200027009006E002A8109AC05DF6
:102CD0000F9990476D1C7F1C0B988742F5DB04E031
:102CE000109A30200F9990476D1C0099481E009053
:102CF0000029F5DC05E03078109A761C0F99904792
:102D00006D1C0199481E01900029F4DC641C65E7E4
:102D10000928010005E00021491CC9B20A29FBD39A
:102D2000401E0028F7D170470349CA695206FCD5F6
:102D30000149203108817047003801408CB0FEF70E
:102D40002DF9FFF70BFCFFF70FFAFFF7F9F9FFF783
:102D500037FAFFF7A3FAFFF7BFF9FFF761FAFDF7BC
:102D6000A7FBFFF7F5FAFFF7D9FA6EA0FFF70AFF06
:102D7000002469460C700C716DA103C926460391AD
:102D8000029001A96846FDF721FB68460AA9007870
:102D9000FFF784F968460BA90079FFF77FF9FDF783
:102DA0008DFA04A9FFF77AF96348FDF728FC08A912
:102DB000FFF774F9FFF788FB06A9FFF76FF9002109
:102DC00008460422FFF7DAFA1225002105222846D8
:102DD000FFF7D4FA002106222420FFF7CFFA0127BB
:102DE00002230AAA39462B20FFF72CFB002144209E
:102DF0000722FFF7C3FA002156200822FFF7BEFA88
:102E0000002168200922FFF7B9FA6F2002230BAADC
:102E10003946FFF717FB0221E0B20022FFF7AEFAB6
:102E200060190221C0B20122FFF7A8FA2046022150
:102E30002430C0B20A46FFF7A1FA204636300221FC
:102E4000C0B20322FFF79AFA641C0421A4B2002046
:102E50000B463AA2FFF7F6FA06A8FDF78FF9C3B2C0
:102E60002827042106AA3846FFF7ECFA06A8FDF742
:102E700085F9C00028300421C0B2022331A2FFF737
:102E8000E1FA052100200B462FA2FFF7DBFA08A884
:102E9000FDF774F9C3B2052108AA3846FFF7D2FA44
:102EA000062100200A22FFF769FA06210B22284694
:102EB000FFF764FA062109222420FFF75FFA04A82D
:102EC000FDF75CF9C3B2072704AA39462B20FFF7A8
:102ED000B9FA04A8FDF752F9C50002A82B35FDF791
:102EE0004DF9C3B2E8B202AA3946FFF7ABFA02A81D
:102EF000FDF744F9C3B22835E8B212A23946FFF70C
:102F0000A1FAFDF7BDFE811B7D200001814200D8A2
:102F100037E70948FDF7CEFCFDF7B2FE0646FFF79E
:102F2000D3FA2EE773797374656D206F6B210A00F5
:102F300075672F6D3300000044030020434F323A81
:102F40000000000020000000536D6F673A00000091
:102F50000000000000000000002F0000000007003B
:102F6000070000147F147F1400242A7F2A120062B5
:102F70006408132300364955225000000503000061
:102F800000001C224100000041221C000014083EE9
:102F900008140008083E0808000000A060000008AF
:102FA0000808080800006060000000201008040203
:102FB000003E5149453E0000427F400000426151C1
:102FC0004946002141454B31001814127F1000275B
:102FD00045454539003C4A4949300001710905031E
:102FE00000364949493600064949291E000036364F
:102FF00000000000563600000008142241000014B2
:10300000141414140000412214080002015109068E
:1030100000324959513E007C1211127C007F49490F
:103020004936003E41414122007F4141221C007F40
:1030300049494941007F09090901003E4149497A4E
:10304000007F0808087F0000417F410000204041C8
:103050003F01007F08142241007F40404040007F34
:10306000020C027F007F0408107F003E4141413E78
:10307000007F09090906003E4151215E007F0919C0
:1030800029460046494949310001017F0101003FBD
:103090004040403F001F2040201F003F4038403F3D
:1030A00000631408146300070870080700615149A1
:1030B000454300007F41410000552A552A55000034
:1030C00041417F00000402010204004040404040B2
:1030D000000001020400002054545478007F48444A
:1030E000443800384444442000384444487F003881
:1030F0005454541800087E0901020018A4A4A47CAA
:10310000007F080404780000447D40000040808473
:103110007D00007F102844000000417F4000007CBB
:1031200004180478007C08040478003844444438C7
:1031300000FC242424180018242418FC007C080413
:10314000040800485454542000043F444020003CEC
:103150004040207C001C2040201C003C4030403C73
:10316000004428102844001CA0A0A07C0044645403
:103170004C44141414141414000000000000000047
:103180000000000000000000000000F80000000047
:10319000000000333000000000100C06100C060088
:1031A000000000000000000040C07840C0784000EF
:1031B000043F04043F040400007088FC0830000051
:1031C000001820FF211E0000F008F000E0180000A9
:1031D00000211C031E211E0000F008887000000062
:1031E0001E2123241927211010160E0000000000B4
:1031F0000000000000000000000000E018040200D1
:10320000000000071820400000020418E000000041
:103210000040201807000000404080F0804040003F
:103220000202010F01020200000000F00000000095
:103230000101011F01010100000000000000000069
:1032400080B07000000000000000000000000000DE
:103250000001010101010101000000000000000067
:103260000030300000000000000000008060180402
:10327000006018060100000000E010080810E000DF
:10328000000F102020100F00001010F800000000A8
:103290000020203F202000000070080808887000EF
:1032A000003028242221300000300888884830006F
:1032B0000018202020110E000000C02010F800008F
:1032C00000070424243F240000F808888808080028
:1032D0000019212020110E0000E01088881800003D
:1032E000000F112020110E0000380808C83808000F
:1032F0000000003F0000000000708808088870008F
:10330000001C222121221C0000E010080810E0000F
:103310000000312222110F00000000C0C000000098
:1033200000000030300000000000008000000000BD
:1033300000008060000000000000804020100800B5
:10334000000102040810200040404040404040007E
:103350000404040404040400000810204080000059
:103360000020100804020100007048080808F0005E
:103370000000003036010000C030C828E810E0002E
:103380000718272423140B000000C038E0000000B9
:10339000203C23020227382008F888888870000023
:1033A000203F202020110E00C030080808083800F7
:1033B000071820202010080008F808080810E0006E
:1033C000203F202020100F0008F88888E80810000F
:1033D000203F20202320180008F88888E8081000E3
:1033E000203F200003000000C0300808083800001B
:1033F00007182020221E020008F808000008F8081C
:10340000203F210101213F20000808F808080000A2
:103410000020203F2020000000000808F8080800D5
:10342000C08080807F00000008F888C0281808004D
:10343000203F20012638200008F808000000000086
:10344000203F20202020300008F8F800F8F808007D
:10345000203F003F003F200008F830C00008F80877
:10346000203F200007183F00E01008080810E00087
:103470000F10202020100F0008F808080808F0009E
:10348000203F210101010000E01008080810E000C1
:103490000F18242438504F0008F888888888700056
:1034A000203F2000030C30200070880808083800F6
:1034B0000038202121221C00180808F808081800EC
:1034C0000000203F2000000008F808000008F8086D
:1034D000001F202020201F000878880000C838081E
:1034E000000007380E010000F80800F80008F80096
:1034F000033C0700073C0300081868808068180830
:1035000020302C03032C30200838C800C8380800AD
:103510000000203F2000000010080808C8380800FC
:103520002038262120201800000000FE02020200A0
:103530000000007F40404000000C30C00000000050
:10354000000000010638C00000020202FE00000078
:10355000004040407F00000000000402020204001E
:10356000000000000000000000000000000000005B
:103570008080808080808080000202040000000043
:10358000000000000000000000008080808000003B
:103590000019242222223F2008F800808000000029
:1035A000003F112020110E000000008080800000EC
:1035B000000E112020201100000000808088F800FB
:1035C000000E112020103F2000008080808000002D
:1035D000001F222222221300008080F08888881891
:1035E0000020203F2020000000008080808080009C
:1035F000006B94949493600008F800808080000031
:10360000203F210000203F2000809898000000000B
:103610000020203F2020000000000080989800003B
:1036200000C08080807F000008F80000808080005B
:10363000203F24022D302000000808F80000000080
:103640000020203F2020000080808080808080003B
:10365000203F20003F20003F8080008080800000CD
:10366000203F210000203F2000008080808000005B
:10367000001F202020201F0080800080800000008C
:1036800080FFA12020110E000000008080808000BB
:10369000000E112020A0FF808080800080808000AC
:1036A00020203F21200001000000808080808000D9
:1036B0000033242424241900008080E0808000004E
:1036C0000000001F2020000080800000008080009B
:1036D000001F202020103F208080800000808080FC
:1036E00000010E300806010080800080008080808C
:1036F0000F300C030C300F000080800080808000B1
:103700000020312E0E3120008080800000808080DB
:1037100080818E701806010000808080808080008B
:103720000021302C2221300000000000807C0202A9
:1037300000000000003F404000000000FF000000CB
:1037400000000000FF0000000002027C800000007A
:103750000040403F00000000000601010202040496
:103760000000000000000000000000000000000059
:103770000102030406070809000000000102030417
:10378000A03700080000002038030000B001000846
:10379000CC38000838030020A0080000B42B000833
:1037A0001116FE0222DA06000912F21212F202FECD
:1037B000020216FF0810080707140F04044F807F49
:1037C000000E124042445840C0FFC040504846409E
:1037D0001720201008040312FF0F10030408102004
:1037E00020201D1008FC032507127F88888482E0B2
:1037F0001D04040405041AFF04290101131CC05F01
:1038000055010E11F555555F6080000F1280601F45
:103810000212A29E40432C102C43F0251060028C13
:103820002BFE92010213FE180A04047E01407E4220
:10383000427E020B11427E61112809FC242424FCE3
:10384000252624080910A000103340308F80844CB6
:1038500055252525554C808080031C363639C049B6
:10386000BF0917C0080B904448507F40407F504824
:1038700044C0211BFE2201490501151B0702012A34
:10388000FF050213071CF212FE0212F20008118457
:103890004F2414244F841008FF4A49484949FF0027
:1038A00008114049497F49494012AE100C1040B000
:1038B00081FFA1A6A83FC8D3000E16D580D805D990
:0C38C000F1DA12D8308D14AF53127A00E8
:04000005080000B13E
:00000001FF
